:100000000C9436170C9460170C9460170C946017BE
:100010000C9460170C9460170C9460170C94601784
:100020000C9460170C9460170C9460170C94601774
:100030000C9460170C94BE460C9460170C946017D7
:100040000C9460170C9486950C9448420C9460179D
:100050000C94D2390C9460170C9460170C946017B0
:100060000C9460170C9460170C9460170C94601734
:100070000C9460170C9460170C9460170C94601724
:100080000C9460170C9460170C94601739413C4134
:100090002F41334153415341404144414A414E4134
:1000A000B741BC41C141CB41F941F941D541DD41A5
:1000B000E541EF4123D4EAD221D35FD421D321D328
:1000C00021D321D321D321D321D321D321D321D390
:1000D00021D321D321D321D321D321D321D321D380
:1000E00021D321D321D321D321D321D321D321D370
:1000F00059D421D321D321D321D321D321D321D327
:1001000021D332D421D321D321D321D321D321D33D
:1001100021D321D321D321D376D41ED34E414E49AE
:100120004E495459494E46CDCCCC3D0AD7233C17B5
:10013000B7D13877CC2B329595E6241FB14F0A0002
:100140000020410000C84200401C4620BCBE4CCAF2
:100150001B0E5AAEC59D74434F4D4D554E494341FC
:1001600054494F4E0044525952554E004552524F39
:10017000525300494E464F004543484F00536C656B
:1001800065702E2E2E00206F6620004D424C2047B9
:10019000323920706F696E74200059206F75742099
:1001A0006F662072616E67652028312D33292E0A13
:1001B0000058206F7574206F662072616E6765202D
:1001C00028312D33292E0A004D6573682070726F17
:1001D00062696E6720646F6E652E0A0053746172E7
:1001E00074206D6573682070726F62696E67207726
:1001F000697468202247323920533122206669729F
:1002000073742E0A004732380A47323920533200BD
:1002100053746174653A20004D65736820626564AB
:10022000206C6576656C696E6720686173206E6FFF
:1002300020646174612E0A0053206F7574206F660C
:100240002072616E67652028302D35292E0A004DF9
:1002500065736820706F696E742063616E6E6F7471
:10026000206265207265736F6C7665640A00436C6A
:1002700069636B20746F20726573756D652E2E2E09
:10028000004E6F206D6F76652E00456E64206669A6
:100290006C65206C6973740A00426567696E20663C
:1002A000696C65206C6973740A00286E6F2066693A
:1002B0006C6529005344207072696E74696E672002
:1002C0006279746520004E6F742053442070726907
:1002D0006E74696E670A0043757272656E7420668B
:1002E000696C653A200046696C652064656C6574CC
:1002F00065643A0044656C6574696F6E2066616977
:100300006C65642C2046696C653A20005072696EF9
:10031000742074696D653A2000780173016C016581
:100320000157016F66660044454255473A004B4904
:100330004C4C45442E20004D3131332053006F6B1F
:100340000020573A0042656420636F6F6C696E67E6
:100350002E2E2E004265642068656174696E672EDA
:100360002E2E00456E6465722D33204F66662E007A
:100370002C20002C2000544845524D414C5F5052D7
:100380004F54454354494F4E004155544F524550E8
:100390004F52545F53445F53544154555300454D9D
:1003A000455247454E43595F5041525345520043D1
:1003B0004153455F4C494748545F4252494748546E
:1003C0004E45535300544F47474C455F4C494748AF
:1003D000545300534F4654574152455F504F574571
:1003E00052004255494C445F50455243454E5400DB
:1003F0004C4556454C494E475F44415441005A5F75
:1004000050524F4245004155544F4C4556454C00C3
:100410005052494E545F4A4F420050524F47524546
:100420005353004155544F5245504F52545F544519
:100430004D5000564F4C554D45545249430045458B
:1004400050524F4D0053455249414C5F584F4E5FFB
:10045000584F4646004649524D574152455F4E411E
:100460004D453A4D61726C696E20312E312E392026
:10047000284769746875622920534F555243455F78
:10048000434F44455F55524C3A68747470733A2F29
:100490002F6769746875622E636F6D2F4D61726C82
:1004A000696E4669726D776172652F4D61726C6914
:1004B0006E2050524F544F434F4C5F564552534954
:1004C0004F4E3A312E30204D414348494E455F54FE
:1004D0005950453A456E6465722D33204558545243
:1004E000554445525F434F554E543A312055554976
:1004F000443A63656465326132662D343161322D70
:10050000343734382D396231322D63353563363224
:100510006633363766660A002F2F20004D3134359A
:1005200020533C696E6465783E206F7574206F6659
:100530002072616E67652028302D31290A00205411
:1005400000205200416363656C65726174696F6E6F
:100550003A2050005741524E494E4721204C6F7768
:10056000205A204A65726B206D6179206C65616448
:1005700020746F20756E77616E746564207061758C
:100580007365732E0A00205A00205900580020205D
:100590004D61783A2000205A002059005800202050
:1005A0004D696E3A20004F6E20004F666600536F13
:1005B000667420656E6473746F70733A2000204611
:1005C0006C6F773A200000010F150E12FFFFFFFF3E
:1005D00016170E13FFFFFFFF03021A14FFFFFFFFA2
:1005E000FFFFFF0C04FFFFFF01000EFFFFFF0C19D0
:1005F0000DFF1820643A0020693A0020703A004943
:100600006E76616C69642065787472756465720ACF
:100610000043290A0061626C656420286D696E20C0
:1006200074656D702000436F6C642065787472751A
:100630006465732061726520004E6F20636173658D
:10064000206C696768740A004D65736820706F6973
:100650006E742063616E6E6F7420626520726573C4
:100660006F6C7665640A004D34323120696E636FB9
:10067000727265637420706172616D657465722059
:1006800075736167650A00454550524F4D204F4BC9
:100690000A004163746976652045787472756465F3
:1006A000723A2000496E76616C69642065787472D4
:1006B000756465720A002569730025696D202569D6
:1006C00073002569682025696D20256973002569F7
:1006D00064202569682025696D20256973002569D6
:1006E0007920256964202569682025696D202569A0
:1006F00073004B494C4C45442E200053544F5050EE
:1007000045442E20005072696E7465722073746FB8
:10071000707065642064756520746F206572726FF7
:1007200072732E2046697820746865206572726F36
:100730007220616E6420757365204D3939392074DB
:100740006F20726573746172742E202854656D7009
:100750006572617475726520697320726573657462
:100760002E2053657420697420616674657220724E
:10077000657374617274696E67290A004E6F204355
:100780006865636B73756D2077697468206C696E3A
:1007900065206E756D6265722C204C617374204CFF
:1007A000696E653A20004E6F20436865636B737510
:1007B0006D2077697468206C696E65206E756D6256
:1007C00065722C204C617374204C696E653A200070
:1007D000636865636B73756D206D69736D617463B8
:1007E000682C204C617374204C696E653A20004C73
:1007F000696E65204E756D626572206973206E6F3B
:1008000074204C617374204C696E65204E756D6266
:1008100065722B312C204C617374204C696E653AE3
:1008200020004D313130004D33310053442072658A
:100830006164206572726F720A00446F6E65207089
:1008400072696E74696E672066696C650A0020497A
:100850006E76616C69642065787472756465722067
:1008600000000020C10000A0C100000000000052F4
:10087000430000484300007A43206E6F7420656E89
:1008800074657265642E0A0050726F7465637465D6
:10089000642050696E0A0046696C616D656E742053
:1008A000757365643A200053746174733A20002CA8
:1008B000204C6F6E67657374206A6F623A20005433
:1008C0006F74616C2074696D653A200053746174B3
:1008D000733A20002C204661696C65643A20002C34
:1008E0002046696E69736865643A20005072696ECB
:1008F00074733A200053746174733A20005772691C
:1009000074696E6720746F2066696C653A20006FA9
:1009100070656E206661696C65642C2046696C6543
:100920003A20006F70656E206661696C65642C20EA
:1009300046696C653A200046696C652073656C6594
:10094000637465640A002053697A653A2000466939
:100950006C65206F70656E65643A20002066696C76
:10096000653A2000646F696E67006672657368009F
:100970004E6F772000454E4420535542524F5554F8
:10098000494E450A002220706F7300222070617268
:10099000656E743A2200535542524F5554494E45A4
:1009A0002043414C4C207461726765743A22004BBD
:1009B000494C4C45442E2000747279696E6720744E
:1009C0006F2063616C6C207375622D67636F646563
:1009D0002066696C6573207769746820746F6F2076
:1009E0006D616E79206C6576656C732E204D415873
:1009F000206C6576656C2069733A004572726F727F
:100A00003A006F70656E206661696C65642C2046E3
:100A1000696C653A200043616E6E6F74206F70657B
:100A20006E2073756264697220006563686F3A00B6
:100A30002020506C616E6E6572427566666572420A
:100A4000797465733A20002046726565204D656DA6
:100A50006F72793A2000436F6D70696C65643A205B
:100A60004D617920323620323032300A00207C202D
:100A7000417574686F723A20284D617274696E4BCB
:100A80006F72696E656B2C20456E6465722D33291B
:100A90000A00323031382D30382D303100204C6191
:100AA000737420557064617465643A2000312E318E
:100AB0002E390A004D61726C696E0020536F6674A6
:100AC000776172652052657365740A0020576174FE
:100AD0006368646F672052657365740A0020427210
:100AE0006F776E206F75742052657365740A0020ED
:100AF00045787465726E616C2052657365740A0086
:100B0000506F77657255700A0073746172740A00D1
:100B10006175746F25692E67006572726F72207738
:100B2000726974696E6720746F2066696C650A006B
:100B3000456E6473746F70732025632025632025D0
:100B40006320256300205A3A0020593A0020583A81
:100B500000656E6473746F7073206869743A200066
:100B6000446F6E6520736176696E672066696C6597
:100B70002E0A004D32390000002100240027002AEF
:100B80000024F4D43050C38E20C2A24017828B7050
:100B900011127A910D816CD90AA861E108C75866D3
:100BA00007615143061E4B5D05C145A7041A41115B
:100BB00004093D9803713931034036DB02653391F6
:100BC00002D4305402802E1D02632CEE01752AC51A
:100BD00001B028A001102781018F2564012B244B2F
:100BE00001E0223401AC211F018D200D01801FFC8A
:100BF00000841EED00971DDF00B81CD200E61BC666
:100C000000201BBC00641AB200B219A8000A19A087
:100C1000006A189900D117910040178B00B516840F
:100C20000031167E00B31579003A157300C7146FB2
:100C30000058146A00EE1366008813630025135EE3
:100C400000C7125B006C12570015125400C11151FD
:100C50000070114F0021114B00D61049008D104734
:100C6000004610440002104200C00F4000800F3EBA
:100C700000420F3C00060F3B00CB0E3800930E37AE
:100C8000005C0E3500270E3400F30D3200C10D312B
:100C900000900D3000600D2E00320D2D00050D2C42
:100CA00000D90C2B00AE0C2900850C29005C0C2708
:100CB00000350C27000E0C2600E80B2400C40B2482
:100CC00000A00B23007D0B23005A0B2100390B21C0
:100CD00000180B2000F80A1F00D90A1E00BB0A1ECC
:100CE000009D0A1D00800A1D00630A1C00470A1BA4
:100CF000002C0A1B00110A1A00F7091A00DD091955
:100D000000C4091900AB091900920917007B0918E2
:100D100000630917004C0916003609160020091651
:100D2000000A091500F5081500E0081400CC0814A5
:100D300000B8081400A4081400900813007D0812DD
:100D4000006B0813005808120046081200340811FE
:100D500000230811001208110001081100F007100B
:100D600000E0071000D0071000C0071000B0070F08
:100D700000A107100091070E0083070F0074070FF2
:100D80000065070E0057070E0049070E003B070DD0
:100D9000002E070E0020070D0013070D0006070D9B
:100DA00000F9060C00ED060D00E0060C00D4060C60
:100DB00000C8060C00BC060C00B0060C00A4060B14
:100DC0000099060C008D060B0082060B0077060BBF
:100DD000006C060B0061060A0057060B004C060A61
:100DE0000042060A0038060A002E060A0024060AF7
:100DF000001A060A001006090007060A00FD050988
:100E000000F4050900EB050900E2050900D9050910
:100E100000D0050900C7050900BE050900B5050891
:100E200000AD050800A50509009C0508009405080B
:100E3000008C050800840508007C0508007405087E
:100E4000006C050700650508005D050700560508EC
:100E5000004E050700470507004005080038050754
:100E600000310507002A050700230507001C0506B9
:100E700000160507000F0507000805060002050714
:100E800000FB040600F5040700EE040600E8040673
:100E900000E2040700DB040600D5040600CF0406C8
:100EA00000C9040600C3040600BD040600B704061A
:100EB00000B1040500AC040600A6040600A0040569
:100EC000009B04060095040500900406008A0405B2
:100ED0000085040500800406007A040500750405F9
:100EE00000700405006B040500660405006104053C
:100EF000005C04050057040500520405004D04057C
:100F00000048040500430405003E0404003A0405BB
:100F10000035040500300404002C040500270404F7
:100F200000230405001E0404001A0404001604052E
:100F300000110404000D0404000904050004040465
:100F40000000040400FC030400F8030400F403049C
:100F500000F0030400EC030400E8030400E40304CD
:100F600000E0030400DC030400D8030400D40304FD
:100F700000D0030400CC030400C8030300C503032E
:100F80000024F404D9201BC40C5C0E9804C4095F2F
:100F90000265077101F405F900FB04B300480487FA
:100FA00000C10369005803550003034500BE023A1F
:100FB000008402310053022A002902250004022085
:100FC00000E4011C00C8011900AF011700980114CA
:100FD0000084011300710110006101100051010E25
:100FE0000043010D0036010B002B010B0020010B0B
:100FF00000150109000C01090003010800FB0008AD
:1010000000F3000800EB000700E4000600DE000625
:1010100000D8000600D2000600CC000500C700057D
:1010200000C2000500BD000400B9000400B50004C2
:1010300000B1000400AD000400A9000400A50003F5
:1010400000A20003009F0004009B0003009800031F
:10105000009500020093000300900003008D000241
:10106000008B000300880002008600020084000359
:1010700000810002007F0002007D0002007B000270
:10108000007900020077000100760002007400027F
:101090000072000100710002006F0002006D00018B
:1010A000006C0002006A0001006900020067000194
:1010B000006600010065000100640002006200019A
:1010C0000061000100600001005F0002005D00019E
:1010D000005C0001005B0001005A000100590001A2
:1010E00000580001005700010056000100550001A2
:1010F00000540001005300000053000100520001A1
:101100000051000100500001004F0001004E00009E
:10111000004E0001004D0001004C0001004B00009A
:10112000004B0001004A0001004900010048000096
:101130000048000100470001004600000046000191
:10114000004500000045000100440001004300008C
:101150000043000100420000004200010041000085
:101160000041000100400001003F0000003F00017D
:10117000003E0000003E0001003D0000003D000177
:10118000003C0000003C0000003C0001003B00006F
:10119000003B0001003A0000003A00010039000065
:1011A000003900010038000000380000003800015C
:1011B0000037000000370001003600000036000054
:1011C0000036000100350000003500000035000148
:1011D000003400000034000000340001003300003F
:1011E0000033000000330001003200000032000034
:1011F0000032000100310000003100000031000128
:10120000003000000030000000300001002F00001E
:10121000002F0000002F0000002F0001002E000012
:10122000002E0000002E0001002D0000002D000007
:10123000002D0000002D0001002C0000002C0000FB
:10124000002C0000002C0001002B0000002B0000EF
:10125000002B0000002B0001002A0000002A0000E3
:10126000002A0000002A00010029000000290000D7
:1012700000290000002900000029000100280000CA
:1012800000280000002800000028000000280001BD
:1012900000270000002700000027000000270000B2
:1012A00000270001002600000026000000260000A4
:1012B0000026000000260001002500000025000097
:1012C0000025000000250000002500000025000189
:1012D000002400000024000000240000002400007E
:1012E0000024000100230000002300000023000070
:1012F0000023000000230000002300000023000161
:101300000022000000220000002200000022000055
:101310000022000000220001002100000021000046
:101320000021000000210000002100000021000039
:10133000002100010020000000200000002000002B
:10134000002000000020000000200000002000001D
:1013500000200001001F0000001F0000001F00000F
:10136000001F0000001F0000001F0000001F000100
:10137000001E0000001E0000001E0000001E0000F5
:1013800000043700001E290000511B000058100007
:101390000010090000CC04000078020000410100A8
:1013A000006265640A002C2073797374656D207384
:1013B000746F7070656421204865617465725F495F
:1013C000443A20004265642068656174696E672054
:1013D0006661696C65640048656174696E67206662
:1013E00061696C65640045312048656174696E67A8
:1013F000206661696C65640048656174696E672088
:101400006661696C656400456E6465722D332052B7
:10141000656164792E005072696E74696E672E2E54
:101420002E005072696E742070617573656400508F
:1014300072696E742061626F72746564004D32313E
:10144000004E6F2053442063617264004368616EF4
:1014500067652053442063617264004D323100504F
:1014600072696E742066726F6D2053440053746FFE
:1014700070207072696E7400526573756D652070AE
:1014800072696E7400496E69742E20534420636142
:101490007264005061757365207072696E740043E8
:1014A0006F6E74726F6C005072657061726500547B
:1014B000756E6500496E666F2073637265656E00B8
:1014C000466C6F7700466C6F7700466C6F7700460E
:1014D000616E2073706565640046616E207370658F
:1014E00065640046616E20737065656400426564E2
:1014F0000042656400426564004E6F7A7A6C650054
:101500004E6F7A7A6C65004E6F7A7A6C6500466130
:1015100064652048656967687400466164652048B1
:101520006569676874004661646520486569676835
:101530007400426564205A00426564205A0053706A
:10154000656564005370656564005370656564008B
:101550004D61696E005072656865617420504C4140
:1015600020456E64005072656865617420504C417E
:1015700020426564005072656865617420504C417A
:1015800000507265706172650050726568656174C3
:101590002041425320456E64005072656865617455
:1015A0002041425320426564005072656865617451
:1015B0002041425300507265706172650042616360
:1015C0006B004E65787420636F726E6572002074D4
:1015D0006F6F206C6F6E6720657874727573696FBA
:1015E0006E2070726576656E7465640A0020636FA4
:1015F0006C6420657874727573696F6E20707265A3
:1016000076656E7465640A004C6576656C696E6714
:1016100020446F6E6521004D6F7665205A00473279
:1016200039205332004E65787420506F696E740013
:101630002569202F20257500473239205331004776
:10164000323920533200436C69636B20746F20423F
:101650006567696E00486F6D696E672058595A005A
:101660004732380053746F72652073657474696E05
:101670006773004C6F61642073657474696E67737F
:10168000004C6576656C20636F726E657273004204
:101690006564205A00426564205A004661646520F2
:1016A00048656967687400466164652048656967D4
:1016B0006874004661646520486569676874004F16
:1016C0006666004F6E2000426564204C6576656C4E
:1016D000696E67004C6576656C20626564005072C7
:1016E0006570617265004D3432380050726568650E
:1016F000617420504C4100436F6F6C646F776E00D3
:101700005072656865617420414253004469736199
:10171000626C65207374657070657273004D383447
:101720000053657420686F6D65206F66667365741D
:101730007300426564204C6576656C696E67004194
:1017400075746F20686F6D6500473238004D6F7695
:10175000652061786973004D61696E004D6F766533
:101760002058004D6F76652059004D6F7665205AE0
:10177000004578747275646572004D6F766520302F
:101780002E316D6D004D6F766520316D6D004D6FA2
:1017900076652031306D6D004D6F7665206178691A
:1017A00073004578747275646572004D6F766520BC
:1017B0005A004D6F76652059004D6F7665205800B0
:1017C0004578747275646572004D6F7665205A00B5
:1017D0004D6F76652059004D6F7665205800507228
:1017E000657061726500496E697469616C697A65DA
:1017F00020454550524F4D00436F6E74726F6C0020
:10180000526573746F7265206661696C7361666599
:10181000004C6F61642073657474696E677300496E
:101820006E697469616C697A6520454550524F4D07
:101830000053746F72652073657474696E6773000A
:1018400046696C616D656E74004D6F74696F6E00F2
:1018500054656D7065726174757265004D61696E75
:10186000004D3330332055312045256920532569FB
:1018700000507265686561742041425320636F6E49
:1018800066005072656865617420504C4120636F3A
:101890006E6600504944204175746F74756E650022
:1018A000504944204175746F74756E650050494409
:1018B000204175746F74756E65005049442D440065
:1018C0005049442D44005049442D49005049442D6D
:1018D00049005049442D50005049442D50002008E3
:1018E000204661637400200820466163740020086C
:1018F000204D6178002008204D6178002008204D9F
:101900006178002008204D696E002008204D696E26
:10191000002008204D696E004F6666004F6E200063
:101920004175746F74656D700046616E20737065EB
:1019300065640046616E2073706565640046616E83
:10194000207370656564004265640042656400420E
:101950006564004E6F7A7A6C65004E6F7A7A6C65BA
:10196000004E6F7A7A6C6500436F6E74726F6C0014
:1019700053746F72652073657474696E6773004287
:1019800065640042656400426564004E6F7A7A6C5B
:1019900065004E6F7A7A6C65004E6F7A7A6C6500DE
:1019A00046616E2073706565640046616E207370D9
:1019B0006565640046616E207370656564005465FA
:1019C0006D70657261747572650000060900FE0035
:1019D0000000000001090008FE00000508080600DC
:1019E0000040F0C88888987810050808060000C0F4
:1019F000F88888888888F80505050600012030F8F1
:101A000030200508080600002070F820202020E083
:101A10000509090600FF2070A8A8B888887020056D
:101A200009090600FFE080C0B0A828302828050971
:101A3000090600FFF8A88888888888A8F8050A0A97
:101A40000600FE205050505088A8A8887003030359
:101A500006000340A04025753A2530327500253038
:101A600032753A253032750025756420253032757F
:101A70003A2530327500202020202020005A0059BD
:101A80000020202020005800092000000000000055
:101A9000000000000000003FFFF000000000000018
:101AA000000000000000380070000000000000008E
:101AB000000000000030FC300000000000000000CA
:101AC0000000000020FC10000000000000000000EA
:101AD000000000207810000000000000000000005E
:101AE0000000203010000000000000000000000096
:101AF000002C00D03FC00000000000000020820049
:101B00002E31D07FE0000000000000001041002FC7
:101B10007BD07FE0000000000000001041002F7B20
:101B2000D07FE0000000000000002082002E31D0B5
:101B30003FC0000000000000004104002C00D03F26
:101B4000C0000000000000008208002030107FE08C
:101B5000000000000000008208002078107FE000F4
:101B600000000000000041040020FC107FE00000A5
:101B7000000000000020820030FC301F80000000C8
:101B8000000000000000003800700F00000000009E
:101B9000000000FFFFC03FFFF00600000000000053
:101BA0000000FFFFC0000000000000000000000077
:101BB000000000003FFFF0000000000000000000F7
:101BC000000000380070000000000000000000006D
:101BD000000031863000000000000000000000001E
:101BE000002387100000000000000000000000003B
:101BF0002787900000000000000000000000002F78
:101C000087D00000000000000000000000002F034B
:101C1000D03FC000000000000000208200203010F3
:101C20007FE0000000000000001041002078107FDD
:101C3000E0000000000000001041002078107FE06C
:101C4000000000000000002082002030103FC00093
:101C50000000000000004104002F03D03FC000003E
:101C600000000000008208002F87D07FE000000005
:101C7000000000008208002787907FE0000000003D
:101C80000000004104002387107FE00000000000F6
:101C900000002082003186301F800000000000001C
:101CA000000000003800700F00000000000000007D
:101CB000FFFFC03FFFF0060000000000000000FF33
:101CC000FFC000000000060900FE0701920321206A
:101CD0007FFF07FF07FF000000060000010707065F
:101CE000020080808080800080030202060105A03F
:101CF000A00507070600005050F850F8505005079F
:101D0000070600002078A07028F0200507070600CD
:101D100000C0C81020409818050707060000609012
:101D2000A040A89068020303060104C04080030796
:101D3000070601002040808080402003070706013D
:101D4000008040202020408005050506000120A8D5
:101D500070A8200505050600012020F820200203B8
:101D6000030602FFC04080050101060003F80202DD
:101D700002060200C0C0050505060001081020404B
:101D80008005070706000070888888888870030728
:101D90000706010040C040404040E005070706003C
:101DA00000708808708080F8050707060000F810AA
:101DB00020100808F005070706000010305090F8C2
:101DC0001010050707060000F880F0080888700565
:101DD0000707060000708080F088887005070706F6
:101DE0000000F808102020202005070706000070DA
:101DF00088887088887005070706000070888878D2
:101E0000080870020505060200C0C000C0C0020636
:101E1000060602FFC0C000C040800407070600009D
:101E200010204080402010050303060002F800F84F
:101E300004070706010080402010204080050707A6
:101E40000600007088081020002005070706000023
:101E500070880868A8A870050707060000708888C1
:101E6000F8888888050707060000F08888F08888C9
:101E7000F0050707060000708880808088700507DD
:101E800007060000F08888888888F00507070600A4
:101E900000F88080F08080F8050707060000F880D1
:101EA00080F0808080050707060000708880B88871
:101EB0008870050707060000888888F888888801E8
:101EC0000707060200808080808080800507070663
:101ED00000003810101010906005070706000088F9
:101EE00090A0C0A090880507070600008080808031
:101EF0008080F805070706000088D8A888888888A9
:101F00000507070600008888C8A89888880507077D
:101F1000060000708888888888700507070600001A
:101F2000F08888F0808080050707060000708888A8
:101F300088A89068050707060000F08888F0A09040
:101F400088050707060000788080700808F00507FC
:101F500007060000F82020202020200507070600A3
:101F600000888888888888700507070600008888A8
:101F70008888885020050707060000888888888898
:101F8000A85005070706000088885020508888055B
:101F900007070600008888885020202005070706CC
:101FA0000000F80810204080F8030707060100E051
:101FB0008080808080E005050506000180402010BB
:101FC00008030707060100E02020202020E0050389
:101FD00003060004205088050101060000F80202F3
:101FE0000206020580400505050600007008788895
:101FF000780507070600008080B0C88888F00505CE
:10200000050600007080808870050707060000083C
:102010000868988888780505050600007088F880AB
:10202000700507070600003048E0404040400506C4
:10203000060600FF7088887808700507070600000C
:102040008080B0C888888801070706020080008069
:10205000808080800308080601FF200020202020C7
:10206000A040040707060000808090A0C0A0900355
:102070000707060100C04040404040E00505050656
:102080000000D0A8A8A8A8050505060000B0C888CB
:102090008888050505060000708888887005060692
:1020A0000600FFF08888F080800506060600FF78AD
:1020B0008888780808050505060000B0C88080807B
:1020C00005050506000070807008F004070706008B
:1020D000004040E04040403005050506000088888B
:1020E0008898680505050600008888885020050541
:1020F000050600008888A8A8500505050600008888
:10210000502050880506060600FF888888780870E9
:10211000050505060000F8102040F8030707060132
:1021200000204040804040200107070602008080D8
:1021300080808080800307070601008040402040A7
:1021400040800502020600026890000000060000C0
:102150005654726176206D696E0056547261762015
:102160006D696E005654726176206D696E00566D11
:10217000696E00566D696E00566D696E00566D6130
:1021800078204500566D6178204500566D617820B5
:102190004500566D6178205A00566D6178205A00CE
:1021A000566D6178205A00566D6178205900566D41
:1021B0006178205900566D6178205900566D61781C
:1021C000205800566D6178205800566D617820586F
:1021D000004D6F74696F6E00416D6178204500415C
:1021E0006D6178204500416D6178205A00416D6134
:1021F00078205A00416D6178205900416D61782046
:102200005900416D6178205800416D617820580077
:10221000412D74726176656C00412D747261766532
:102220006C00412D7265747261637400412D72659A
:10223000747261637400416363656C00416363653C
:102240006C004D6F74696F6E0056652D6A65726B18
:102250000056652D6A65726B0056652D6A65726B56
:1022600000567A2D6A65726B00567A2D6A65726B1C
:102270000056792D6A65726B0056792D6A65726B0E
:102280000056792D6A65726B0056782D6A65726BFF
:102290000056782D6A65726B0056782D6A65726BF0
:1022A000004D6F74696F6E004573746570732F6DA8
:1022B0006D004573746570732F6D6D005A7374658E
:1022C00070732F6D6D005A73746570732F6D6D0090
:1022D0005973746570732F6D6D00597374657073E5
:1022E0002F6D6D005873746570732F6D6D0058738A
:1022F000746570732F6D6D004D6F74696F6E007033
:10230000012C0190012701B0012201C0011D01F043
:102310000118011002130130020E01600209019040
:10232000020401C002FF000003FA004003F5008030
:1023300003F000D003EB002004E6007004E100E0AD
:1023400004DC004005D700C005D2004006CD00D017
:1023500006C8008007C3003008BE00F008B900C0FE
:1023600009B400B00AAF00B00BAA00D00CA5000061
:102370000EA000500F9B00C010960050129100005C
:10238000148C00C0158700B0178200B0197D00D0F2
:102390001B7800001E730040206E0090226900F040
:1023A00024640040275F0090295A00E02B5500105C
:1023B0002E500020304B0010324600E03341009098
:1023C000353C001037370070383200A0392D00B08E
:1023D0003A2800A03B2300603C1E00103D190090ED
:1023E0003D1400103E0F00703E0A00C03E05000084
:1023F0003F0000403FFBFF803FF6FFC03FF1FF453D
:102400003120544845524D414C2052554E41574180
:10241000590042454420544845524D414C205255A4
:102420004E4157415900546865726D616C20527578
:102430006E61776179004531204572723A204D41D5
:102440005854454D50004572723A204D41585445FC
:102450004D5020424544004D415854454D50207444
:102460007269676765726564004531204572723A2A
:10247000204D494E54454D50004572723A204D4909
:102480004E54454D5020424544004D494E54454D13
:102490005020747269676765726564004D38342036
:1024A000582059205A204500202F002042403A0051
:1024B00020403A00526573656E643A20006F6B00ED
:1024C00020746F6F206C6F6E6720657874727573FF
:1024D000696F6E2070726576656E7465640A00209F
:1024E000636F6C6420657874727573696F6E2070A9
:1024F000726576656E7465640A00627573793A2058
:1025000070617573656420666F7220696E70757492
:102510000A00627573793A2070617573656420668C
:102520006F7220757365720A00627573793A207054
:10253000726F63657373696E670A004B494C4C4553
:10254000442E20004B494C4C206361757365642018
:10255000627920746F6F206D75636820696E6163A6
:10256000746976652074696D65202D2063757272BB
:10257000656E7420636F6D6D616E643A2000506CFF
:1025800065617365207265736574005052494E54DD
:1025900045522048414C544544005072696E746560
:1025A000722068616C7465642E206B696C6C2829DC
:1025B0002063616C6C6564210A00656E71756575D8
:1025C00065696E67202200000020C10000A0C100E4
:1025D0000000000000484200004842000080400027
:1025E0000000005761726E696E673A20486F6D692E
:1025F0006E672042756D702044697669736F722032
:102600003C20310A000404080000A0400000A04063
:102610000000004000005C4300005C4300007A437F
:10262000FFFFFF20573A004520436F6F6C696E67CC
:102630002E2E2E00452048656174696E672E2E2E61
:1026400000205A3A0020593A0020436F756E7420DA
:10265000583A0020453A00205A3A0020593A00588A
:102660003A003A004361703A0023646566696E651A
:102670002044454641554C545F4B6420002364651B
:1026800066696E652044454641554C545F4B692050
:102690000023646566696E652044454641554C5487
:1026A0005F4B702000504944204175746F74756E03
:1026B000652066696E6973686564212050757420B1
:1026C000746865206C617374204B702C204B6920FA
:1026D000616E64204B6420636F6E7374616E7473FB
:1026E0002066726F6D2062656C6F7720696E746F03
:1026F00020436F6E66696775726174696F6E2E68CC
:102700000A00504944204175746F74756E652066E7
:1027100061696C6564212074696D656F75740A0068
:10272000453120544845524D414C2052554E415759
:10273000415900546865726D616C2052756E617705
:1027400061790045312048656174696E6720666172
:10275000696C65640048656174696E6720666169CB
:102760006C656400504944204175746F74756E65E2
:10277000206661696C6564212054656D70657261C5
:102780007475726520746F6F20686967680A00202D
:102790004B643A2000204B693A2000204B703A20CD
:1027A000000A20436C617373696320504944200A16
:1027B000002054753A2000204B753A2000206D61AE
:1027C000783A2000206D696E3A200020643A20009B
:1027D00020626961733A2000504944204175746F4A
:1027E00074756E65206661696C6564212042616460
:1027F000206578747275646572206E756D6265729D
:102800000A00504944204175746F74756E652073D9
:10281000746172740A004F66660A0046616465203E
:102820004865696768742000426564204C65766578
:102830006C696E6720004661696C656420746F2066
:10284000656E61626C6520426564204C6576656CDE
:10285000696E670A004D65736820426564204C65A7
:1028600076656C20646174613A0A00486F6D65207A
:102870002573257325732066697273740020666959
:102880007273740A005A0059005800486F6D652031
:10289000004F666673657473206170706C6965645F
:1028A000004572723A20546F6F20666172210054A5
:1028B0006F6F206661722066726F6D20726566654B
:1028C00072656E636520706F696E740A00454550CD
:1028D000524F4D206461746173697A65206572722C
:1028E0006F722E0A00290A002062797465733B20FA
:1028F000637263200053657474696E677320537448
:102900006F726564202800290A002062797465735B
:102910003B2063726320002073746F7265642073C0
:10292000657474696E677320726574726965766523
:1029300064202800202863616C63756C6174656491
:1029400029210A0020213D2000454550524F4D20AD
:10295000435243206D69736D61746368202D202894
:1029600073746F7265642920002053697A653A2078
:1029700000496E6465783A2000204D61726C696E82
:102980003D563535290A0028454550524F4D3D00EA
:10299000454550524F4D2076657273696F6E206DBC
:1029A00069736D61746368200053746570732F6D73
:1029B0006D004A65726B00416363656C657261749A
:1029C000696F6E0056656C6F6369747900436F6E52
:1029D00074726F6C0046696C2E204469612E00464B
:1029E000696C2E204469612E004F6666004F6E2090
:1029F000004520696E206D6D3300436F6E74726FF9
:102A00006C0043616E6E6F7420656E746572207326
:102A100075626469723A2000022E2E0001526566CA
:102A200072657368004D61696E0000002200250028
:102A300028002B00000020002300260029000202AD
:102A40000202020202020404040404040404030354
:102A50000303030303030101010101010101010259
:102A60000408102040800102040810204080010268
:102A7000040810204080804020100804020100005B
:102A800000010200090A000000000403080700001A
:102A900000000000000000000000000000004D32B7
:102AA00034004D323320257300556E6B6E6F776E98
:102AB00020636F6D6D616E643A2022005344206381
:102AC000617264206F6B0A006F70656E526F6F7475
:102AD000206661696C65640A00766F6C756D652EA1
:102AE000696E6974206661696C65640A00534420EC
:102AF000696E6974206661696C0A007C3C3E5E2BDD
:102B00003D3F2F5B5D3B2C2A225C00486172646371
:102B10006F6465642044656661756C7420536574E8
:102B200074696E6773204C6F616465640A00F40118
:102B30000000F401000064000000881300000000A1
:102B4000FA430000FA430000A0400000C841000022
:102B5000A0420000A0420000C8430000BA42202862
:102B60006D6D290020440020490020204D33303174
:102B70002050005049442073657474696E67733A3D
:102B80000A0020460020420020480020204D313419
:102B9000352053004D6174657269616C2068656110
:102BA00074757020706172616D65746572733A0A34
:102BB00000205A002059002020473239205333206A
:102BC0005800205A0020204D3432302053004D65EB
:102BD000736820426564204C6576656C696E673A5F
:102BE0000A00205A0020590020204D32303620584B
:102BF00000486F6D65206F66667365743A0A002041
:102C00004500205A0020590020580020540020532D
:102C10000020204D32303520510020453C6D617838
:102C20005F655F6A65726B3E0020583C6D61785F3E
:102C3000785F6A65726B3E20593C6D61785F795FA1
:102C40006A65726B3E205A3C6D61785F7A5F6A6597
:102C5000726B3E00416476616E6365643A20513C5C
:102C60006D696E5F7365676D656E745F74696D65C0
:102C70005F75733E20533C6D696E5F666565647277
:102C80006174653E20543C6D696E5F747261766557
:102C90006C5F66656564726174653E002054002057
:102CA000520020204D323034205000416363656C67
:102CB00065726174696F6E2028756E6974732F7305
:102CC00032293A20503C7072696E745F61636365AB
:102CD0006C3E20523C726574726163745F61636321
:102CE000656C3E20543C74726176656C5F61636311
:102CF000656C3E0A00204500205A00205900202023
:102D00004D3230312058004D6178696D756D20412C
:102D10006363656C65726174696F6E2028756E6996
:102D200074732F7332293A0A00204500205A00207C
:102D3000590020204D3230332058004D6178696DA4
:102D4000756D206665656472617465732028756EA3
:102D50006974732F73293A0A00204500205A002015
:102D6000590020204D39322058005374657073206B
:102D700070657220756E69743A0A0020204D3230F9
:102D8000302044300A0020204D32303020440020D2
:102D900044697361626C65640A0046696C616D65C3
:102DA0006E742073657474696E67733A0020204DE9
:102DB0003134392043203B20556E69747320696E8D
:102DC0002043656C736975730A00202047323120F7
:102DD0002020203B004572726F72207772697469FF
:102DE0006E6720746F20454550524F4D210A0048B0
:102DF0006F6D696E67206661696C65640054524945
:102E0000474745524544006F70656E003A20007A8E
:102E10005F6D696E00795F6D696E00785F6D696ED8
:102E2000005265706F7274696E6720656E647374AA
:102E30006F70207374617475730A000A4D65617355
:102E40007572656420706F696E74733A0A005A2057
:102E50006F66667365743A20004E756D20582C5964
:102E60003A20332C330A0000A4E47CEA11241FBE6C
:102E7000CFEFD0E4DEBFCDBF12E0A0E0B1E0E8EEDE
:102E8000FFEE01E00BBF02C007900D92A834B1071E
:102E9000D9F723E1A8E4B2E001C01D92AF36B20732
:102EA000E1F717E1C5E3D7E104C02197FE010E94D5
:102EB00031F5C433D107C9F70E9495E50C94E7F7C3
:102EC0000C9400002F923F924F925F926F927F92EC
:102ED0008F929F92AF92BF92CF92DF92EF92FF922A
:102EE0000F931F93CF93DF93CDB7DEB7E6970FB65F
:102EF000F894DEBF0FBECDBF11E01093070F809195
:102F000068138D3409F47AC4843511F40C940D2AB5
:102F1000873411F00C94592A8091661390916713AD
:102F20008D31910509F41DC184F48430910509F4B3
:102F3000DAC01CF4029768F15DC44C9709F05AC4DA
:102F400080E00E94E1320C945B2A8A35910509F4F5
:102F500094C324F48A9709F406C34CC48B359105B5
:102F600009F48FC38C35910509F044C43BE5232E49
:102F700031E0332E45E1E42E4FE0F42E4BED51E1EC
:102F80005DA34CA352E4C52E5DE0D52E00E010E019
:102F9000B7C380911201882311F40C945B2A1BE5BE
:102FA000812E11E0912E01E2E02E0FE0F02E0BEDCC
:102FB00011E182E4A82E8DE0B82E99E4C92E92E0AA
:102FC000D92E712CD4018D914D010E949F318823FF
:102FD00019F10E946C31F6012081211104C0209169
:102FE0004D02222341F0D8012D913D914D915C91EC
:102FF0000E944FF50AC0B3E07B1639F0F50120813D
:103000003181428153810E944EF5D7016D937D93AA
:103010008D939C9313970AC0F80180819181A281BE
:10302000B381F70180839183A283B3837394F4E027
:10303000EF0EF11C0C5F1F4F24E0A20EB11C3FEFFE
:10304000C31AD30A44E07412BDCF86E40E94E8316B
:103050008823C9F00E946C3120E030E0A9010E9471
:10306000D2F6181684F40E946C3120E030E040E77C
:1030700052E40E94D2F560933C0170933D0180932D
:103080003E0190933F018091310D83FD28C08091D6
:103090001606882321F12091E7113091E811409123
:1030A000E9115091EA1160912D0F70912E0F8091CE
:1030B0002F0F9091300F0E944EF5209123063091F2
:1030C000240640912506509126060E944FF56093F4
:1030D00023067093240680932506909326060E946B
:1030E000099D0C945B2A80E50E94E831882329F031
:1030F0000E9428316B017C0103C0C12CD12C7601C8
:1031000083E50E94E831882361F00E946C3120E061
:1031100030E04AE754E40E94CDF00E944BF66B0188
:103120007C010E94386480919711811105C060E094
:103130008DE791E00E9420850E943C42C60ED71E7A
:10314000E81EF91E0E943C42DC01CB018C199D094E
:10315000AE09BF09B7FD02C00C945B2A0E94B79963
:10316000F1CF83E50E94E831882399F00E9448312D
:10317000182F863080F0E8E3F2E084918F010F5F32
:103180001F4F882311F40C945B2A0E94CB34F80162
:10319000F4CF10E010C0833009F451C130F4813015
:1031A00081F1823009F441C006C0843009F4A9C11C
:1031B000853009F4B6C10E940A2D811103C0E8E1EF
:1031C000F2E013C08091410D882319F069E172E0AB
:1031D00002C06DE172E080E192E00E9409E08AE0C5
:1031E0000E94CB340E9484DEA2C184917F015FEFF4
:1031F000E51AF50A882309F49AC10E94CB34F70135
:10320000F4CF0E9437DF10920101109200018091EB
:10321000370D81110AC085E092E09093870F80936B
:10322000860F0E94BC2F0C945B2A80910001909124
:10323000010197FF0EC0ECEDF1E084918F010F5F6B
:103240001F4F882311F40C945B2A0E94CB34F801A1
:10325000F4CF0097A1F4809129018093480219824C
:103260001A821B821C8218A219A21AA21BA2BE01DA
:103270006F5F7F4FCE0180960E944FC12BC081505F
:1032800063E00E94DCF480FF03C022E0291B922F40
:10329000292F990F330BF901EE0FFF1FE20FF31FD8
:1032A000E80FF11D87FDFA95EE0FFF1FEE0FFF1FD0
:1032B000E750FD4E8091E3119091E411A091E5114A
:1032C000B091E61180839183A283B38380914802F9
:1032D000809329018091000190910101893091052D
:1032E0000CF066C0109229019C012F5F3F4F309374
:1032F00001012093000163E00E94DCF480FF03C021
:1033000022E0291B922F4091E3115091E41160912A
:10331000E5117091E61148A359A36AA37BA3198212
:103320001A821B821C8264E0860290011124D9015A
:10333000A45DBC4F4D012D913D914D915C91B4E048
:103340009B02C0011124FC01E85CFC4F5F0160811D
:10335000718182819381DE0111966D01E12CF12C46
:1033600000EA10E40E94762E19821A821B821C82C7
:10337000B601CE0180960E944FC1F50180819181F6
:10338000A281B3818093DB119093DC11A093DD11B6
:10339000B093DE11F40180819181A281B381809389
:1033A000DF119093E011A093E111B093E21144C0BA
:1033B00080E090E0A0EAB0E48093E3119093E41100
:1033C000A093E511B093E6110E941F2E0E9438646D
:1033D0008FEF9FEF9093010180930001E8ECF1E003
:1033E00084918F010F5F1F4F882321F00E94CB34FF
:1033F000F801F6CF83E992E09A83898304E610E02E
:1034000019A308A3BE016F5F7F4FCE0180960E9473
:10341000F13B8AEB92E09A83898319A308A3BE014A
:103420006F5F7F4FCE0180960E94F13B81E00E944A
:10343000E13281E00E94372D1092370D7AC088E585
:103440000E94E8318823A1F00E9438311FEF160F47
:103450001330A8F0E1EBF1E084918F010F5F1F4F73
:10346000882311F40C945B2A0E94CB34F801F4CF2A
:1034700088E50E94CB340E9494E40C945B2A89E591
:103480000E94E8318823A1F00E9438310FEF060F27
:103490000330A8F0EAE9F1E084918F010F5F1F4F3C
:1034A000882311F40C945B2A0E94CB34F801F4CFEA
:1034B00089E50E94CB340E9494E40C945B2A8AE54F
:1034C0000E94E8318823B1F00E946C31212F30E056
:1034D000F901EE0FFF1FE20FF31FE00FF11DEE0FDA
:1034E000FF1FEE0FFF1FE750FD4E60837183828345
:1034F000938335C08AE50E94CB340E9494E40C94F7
:103500005B2A8AE50E94E8318823A1F30E946C318E
:103510006093390D70933A0D80933B0D90933C0D61
:103520001EC080E00E94372D0E9437DF18C0123085
:10353000B1F460910001709101016930710514F0DE
:1035400069E070E08BE891E00E94F0DF69E070E0F4
:1035500086E891E00E94F0DF8AE00E94CB340E946E
:10356000A1A60C945B2A80911201882311F40C947B
:103570005B2A89E40E94E831E82E882321F00E942A
:103580003831062F01C000E08AE40E94E831F82EAD
:10359000882321F00E943831162F01C010E0EE2060
:1035A00011F0033020F4FF2081F0133070F0EFE4CD
:1035B000F2E084918F010F5F1F4F882311F40C9468
:1035C0005B2A0E94CB34F801F4CF0E94D732EE2060
:1035D00091F024E00202F0011124E85CFC4F8081AC
:1035E0009181A281B3818093210F9093220FA093A8
:1035F000230FB093240FFF2091F034E01302F00169
:103600001124E45DFC4F80819181A281B38180937C
:10361000250F9093260FA093270FB093280F80E5D6
:103620000E94E831882319F00E945C3103C080E5D4
:103630000E949F3186E40E94E831882309F44FCD2F
:103640000E946C316B017C0120E030E0A9010E94F6
:10365000D2F618160CF043CD20E030E040E752E4FB
:10366000C701B6010E94D2F560933C0170933D0101
:1036700080933E0190933F0132CD10924D020C9405
:103680005B2A10934D020C945B2A0E946C312B0133
:103690003C01133049F0F601208131814281538190
:1036A0000E944EF52B013C01ACA1BDA12D913D9195
:1036B0004D915C91C301B2010E944EF54B015C013A
:1036C0002DEB37E346E855EB0E94D2F687FD20C08C
:1036D0002DEB37E346E855E3C501B4010E9467F0DE
:1036E0001816B4F01F5FB4E0EB0EF11CECA1FDA1C5
:1036F0003496FDA3ECA3F4E0CF0ED11C143039F1C5
:10370000D1018D911D010E94E831882359F3BDCF6D
:10371000133051F44092E7115092E8116092E91190
:103720007092EA1101E0DECFA5019401F7016081FA
:103730007181828193810E944FF5D7016D937D93B2
:103740008D939C931397812F0E94682FCBCF0023DA
:1037500009F405CF20E030E0A9016091E7117091F4
:10376000E8118091E9119091EA110E944FF52091A2
:10377000470E3091480E4091490E50914A0E0E94DA
:10378000CDF00E94D7F660932803709329038093AD
:103790002A0390932B0390910603809107039817B7
:1037A00019F00E94DA63DBCE0E94386480916F00CA
:1037B000982F927081FF05C080916F008D7F80935C
:1037C0006F00409128035091290360912A03709162
:1037D0002B034093B40C5093B50C6093B60C7093CC
:1037E000B70C992309F4BBCE80916F00826080935F
:1037F0006F00B5CE0E94E5C20C945B2A80916613DF
:10380000909167138237910509F406C70CF0D2C076
:103810008B34910509F489C40CF067C08831910597
:1038200009F489C2ACF58231910509F426C6BCF4CD
:1038300097FF02C00C940A2A823091050CF4ABC1A8
:10384000419711F00C940A2A60E081E892E00E940E
:1038500020855E985E9815985E980C945B2A853159
:10386000910509F44DC23CF4449711F00C940A2AD6
:10387000E9E9F2E007C28631910509F445C24797AC
:1038800011F00C940A2AE0916413F091651346C27A
:103890008D31910511F40C945B2AC4F48A319105A1
:1038A00009F458C20CF450C28B31910509F460C27E
:1038B0004C9711F00C940A2A40E060E08091641368
:1038C000909165130E94EA3E0C945B2A8F3191051A
:1038D00009F4CCC30CF4E4C28032910509F47AC334
:1038E0008A9709F4EDC30C940A2A8836910509F4E5
:1038F0002CC4C4F58235910509F4B6C5D4F48D34D1
:10390000910509F41AC40CF414C48E34910509F419
:1039100018C48135910511F00C940A2A0E94499728
:103920000E94756410927B0F10927A0F00E010E0F5
:103930007FC58435910509F4A0C50CF499C585357A
:10394000910509F4CFC58C35910511F00C940A2A24
:103950001BE5C12E11E0D12E0BE3E02E0EE0F02E80
:1039600010E0DBC58D36910509F4FBC49CF48A3662
:10397000910509F42DC50CF4B2C48B36910509F4F8
:1039800045C58C36910511F00C940A2A1092080155
:103990000C945B2A8F36910509F419C40CF404C405
:1039A0008037910509F466C48137910509F46AC42A
:1039B0000C940A2A8D3D910511F40C940E270CF0FD
:1039C0005EC08B39910509F4A5C41CF587379105B4
:1039D00009F417C774F48537910509F4B7C60CF0DC
:1039E000C4C68337910511F00C940A2AE5E5F4E08A
:1039F00052C68937910509F40DC70CF405C78C38F8
:103A0000910509F4B2C48139910509F408C70C94F1
:103A10000A2A8C3C910511F40C940C25ECF4883C9A
:103A2000910509F474C734F48E3B910509F4BBC4C5
:103A30000C940A2A893C910511F40C94D7248B3CF0
:103A4000910511F00C940A2A6BE5E62E61E0F62E42
:103A50000FEF1DE00C94FD248E3C910511F40C94A5
:103A6000002614F40C948125833D910509F48FC040
:103A70008C3D910511F40C9401270C940A2A853A87
:103A800021E0920711F40C94DF280CF040C08F3233
:103A900041E0940711F40C94C328DCF48C3261E00B
:103AA000960711F40C94A6273CF4823E910511F47C
:103AB0000C947C270C940A2A8D32A1E09A0711F409
:103AC0000C94CF278E32914011F40C946F280C94F3
:103AD0000A2A8039E1E09E0711F40C94DC284CF4AA
:103AE0008336914011F00C940A2AEBEFF9E00C9424
:103AF000C9288A3931E0930709F4C0C3843A914058
:103B000011F00C940A2A0E94F7A80C945B2A873FB4
:103B100051E0950711F40C94C629FCF4843F71E040
:103B2000970711F40C94C0294CF48C3A914011F091
:103B30000C940A2A0E946BA70C945B2A853FE1E053
:103B40009E0711F40C94C329863F914011F00C9408
:103B50000A2A0E945CD10C945B2A8B3823E09207DE
:103B600011F40C945B2A3CF4883F914011F40C94BE
:103B7000D1290C940A2A803A53E0950709F469C2C6
:103B8000873E934011F40C94F5290C940A2AEAE23A
:103B9000FAE00C942226A0906413B090651380E59F
:103BA0000E94E831882359F00E9428316B017C0182
:103BB00011E0672B682B692B31F410E004C010E092
:103BC000C12CD12C760183E50E94E831882311F4C1
:103BD0000C94602A0E946C3120E030E04AE754E403
:103BE0000E94CDF00E944BF66B017C0111110BC0BD
:103BF000672B682B692B39F4A114B10421F0D5018E
:103C00008C91811102C010E001C011E00E94386463
:103C1000112329F061E0C5010E945C8505C060E0C8
:103C20008EE692E00E94208583E08093070F81E07A
:103C30008093DB0DC114D104E104F104B1F00E94C2
:103C40003C42C60ED71EE81EF91E0E943C42DC0113
:103C5000CB018C199D09AE09BF09B7FF0DC080913A
:103C6000DB0D81110C94652A07C08091DB0D882340
:103C700019F00E94B799F9CF0E9458511092DB0DAC
:103C80000C945B2A84918F010F5F1F4F882321F0D2
:103C90000E94CB34F801F6CF109208068BEB93E02C
:103CA0000E94CCC78BE1EBEBF3E0DE0115960190AF
:103CB0000D928A95E1F78091B9039091BA039C83A4
:103CC0008B8389E691E09A83898340E050E0BE01CE
:103CD0006F5F7F4F80E090E00E94253CCE0101960F
:103CE0000E942A99EAE8F2E084918F010F5F1F4F4A
:103CF000882311F40C945B2A0E94CB34F801F4CF92
:103D00000E9489C10C945B2A10926403109265038F
:103D10000C945B2A803209F41082319680818111E3
:103D2000F9CF40E061E080916413909165130E94A7
:103D3000EA3E0C945B2A8091650381111093640321
:103D40000E9424E00C945B2A109264030E946D464A
:103D50000C945B2A80916503882311F40C945B2AF0
:103D600083E50E94E83181110C94692A0C945B2A46
:103D700083E40E949F31882309F450C0E7EDF2E00C
:103D800084918F010F5F1F4F882321F00E94CB3455
:103D9000F801F6CF80915605811103C0EAEAF2E0FE
:103DA00012C0BE016F5F7F4F83E595E00E9493C60E
:103DB0008E010F5F1F4FF80181918F01882349F118
:103DC0000E94CB34F8CF84918F010F5F1F4F88235F
:103DD00001F10E94CB34F801F6CF29E1C22E23E095
:103DE000D22EE12CF12C20E08091310D90E00E2CB0
:103DF00002C0959587950A94E2F780FD18C2EFEF0F
:103E0000EE1AFE0AF2E0CF0ED11C35E0E316F10403
:103E100059F78AE00E94CB340C945B2A80916503A9
:103E2000882339F080916403882319F0E4EBF2E0F1
:103E300003C0E6ECF2E028C084918F010F5F1F4FB2
:103E4000882321F00E94CB34F801F6CF609104065C
:103E50007091050680910606909107064AE00E943F
:103E60007A378FE20E94CB34609100067091010690
:103E700080910206909103064AE00E947A378AE018
:103E80000E94CB340C945B2A84918F010F5F1F4FEB
:103E9000882311F40C945B2A0E94CB34F801F4CFF0
:103EA00080916503882311F40C945B2A83E595E0E7
:103EB0000E94BBD883E595E00E946EC61092630312
:103EC0001092620380916503882311F40C945B2A9D
:103ED000009164131091651310926403809156054C
:103EE000882321F083E595E00E946EC6B801CE01DB
:103EF00080960E942E3E8C01892B11F40C945B2A33
:103F000068A179A16115710511F06C5F7F4F19826D
:103F10001C8222E0A801CE0101960E941DCC8111D5
:103F200002C0F12C14C0CE0101960E942D3B8823C3
:103F3000C1F361E0CE0101960E9477C6009789F334
:103F400025EEDC012C931C820E9460D6F82ECE0157
:103F500001960E94D132F11003C0E4EFF2E022C0DA
:103F6000E6EEF2E084917F01BFEFEB1AFB0A8823B3
:103F700021F00E94CB34F701F5CFF80181918F0138
:103F8000882319F00E94CB34F8CF8AE00E94CB340A
:103F9000109204061092050610920606109207066B
:103FA0000C945B2A84917F012FEFE21AF20A882396
:103FB00021F00E94CB34F701F5CFD8018D918D010E
:103FC000882319F00E94CB34F8CF8EE20E94CB34C4
:103FD0000C945B2A8091640381110E943864809163
:103FE0006503882311F40C945B2A80E50E94E83174
:103FF000882319F00E945C3103C080E50E949F3144
:10400000182F482F61E080916413909165130E94EE
:10401000EA3E83E50E94E831882381F00E9438312E
:10402000AB01BC014093040650930506609306065D
:104030007093070683E595E00E9484C5809165032F
:10404000882319F081E08093640311110C945B2A9A
:1040500077CE809164139091651321E020936303E0
:1040600040E060E00E94EA3E0C945B2A0E941E46FB
:1040700068A379A38AA39BA3BE016F5F7F4FCE0184
:1040800080960E94F53160E0CE0101960E945C8529
:10409000EAE2FAE084918F010F5F1F4F882321F03D
:1040A0000E94CB34F801F6CFBE016F5F7F4F8CE0EA
:1040B00093E00E9409E08AE00E94CB340C945B2AD2
:1040C00083E50E94E831882311F40C945B2A0E9456
:1040D0004831E82E80E50E94E831882311F40C94E1
:1040E0005B2A0E944831182F87FF02C00C945B2A7C
:1040F00089E40E94E831882341F00E945C318111FB
:104100000C94452CE6ECF5E00BC089E40E949F314D
:10411000F6CF3196B5E0E33FFB0711F40C94452C44
:1041200084911813F6CF0C941A2C0E9424E00C945E
:104130005B2A0E946D460C945B2A0E946BE00C94F3
:104140005B2A0E94BA380C945B2A88E690E00E94B1
:10415000E73781110C945B2A8091310D83FF02C0F7
:104160000C945B2A83E50E94E8318823C9F00E9401
:104170006C310E9444F67093790F6093780F80E061
:104180000E94FD960E946C3120E030E04AEA52E441
:104190000E9467F0181624F00E946BE00E945851AC
:1041A0000E941DE10C945B2A8EE40E94E831882372
:1041B00011F40C945B2A0E9438316093BF02709313
:1041C000C0028093C1029093C2020C945B2A83E5E3
:1041D0000E949F31882359F083E50E94E8318823AB
:1041E00019F00E94483101C080E08093310DEAE26D
:1041F000FAE084918F010F5F1F4F811103C0E7E246
:10420000F3E004C00E94CB34F801F3CF84918F0116
:104210000F5F1F4F882321F00E94CB34F801F6CFA7
:104220008091310D8111D9CDE3E2F3E018C0BB24B8
:10423000B394B20E222319F08CE20E94CB34F60123
:1042400085919491FC0184918F010F5F1F4F88230A
:1042500021F00E94CB34F801F6CF2B2DD0CD8491E4
:104260008F010F5F1F4F882309F4D3CD0E94CB34F9
:10427000F801F5CF8EE293E00E9446990E94FBA1DF
:104280000C945B2A83E50E94E831811103C0EAE2C5
:10429000FAE00DC00E9448318D3320F48093400134
:1042A0000C945B2A8CE3809340010C945B2A8491EC
:1042B0008F010F5F1F4F882321F00E94CB34F8013C
:1042C000F6CF4091400150E060E070E087E393E07A
:1042D0000E94FA4D8AE00E94CB340C945B2A89E656
:1042E00090E00E94E737811111C0EEE3F3E0849182
:1042F0008F010F5F1F4F882321F00E94CB34F801FC
:10430000F6CF0E94BA938AE00E94CB341092070F36
:104310000C945A2C83E50E94E831882311F40C9404
:104320005B2A0E944831182F8D3308F01CE310934C
:10433000140F0E943C426B017C01212F30E0A8EE5B
:10434000B3E00E94CDF4C60ED71EE81EF91EC0923F
:10435000100FD092110FE092120FF092130F0C94E5
:104360005B2A0E94C5AA0C945B2A8091310D83FFC1
:1043700002C00C945B2A83E50E94E831882311F483
:104380000C945B2A0E946C310E9444F66D377105D3
:1043900014F06DE770E07093770F6093760F0E94D2
:1043A000B1960C945B2A8091310D83FF02C00C946E
:1043B0005B2A83E50E94E8318EA781110C947A2A4A
:1043C00082E50E94E83181110C947A2A0C945B2AD0
:1043D00080E50E94E831811106C083E50E94E83142
:1043E000882361F006C00E94483181110C945B2A39
:1043F000F4CF0E9438316F3F710510F06FEF70E01D
:1044000070937B0F60937A0F0C945B2A80E50E9477
:10441000E831811106C010927B0F10927A0F0C9434
:104420005B2A0E943831672B11F00C945B2AF3CF82
:1044300062E370E080E090E00E9402420E949743B5
:104440000F5F1F4F0331110599F762E370E080E0C1
:1044500090E00E9402420E94974360E083E693E06E
:104460000E9420850C945B2A10924C020C945B2ACB
:1044700081E080934C020C945B2A83E50E94E83132
:104480008823A1F00E946C3120E030E04AE754E438
:104490000E94CDF00E944BF660934101709342015F
:1044A00080934301909344010C945B2A88E50E9419
:1044B0009F3181110C94F52B89E50E949F31811168
:1044C0000C94F52B8AE50E949F3181110C94F52BF9
:1044D00085E40E949F3181110C94F52B0E94756434
:1044E0000C945B2A83E50E949F31882311F40C947D
:1044F0005B2A0E946C3120E030E04AE754E40E94DD
:10450000CDF00E944BF660930C0F70930D0F8093CB
:104510000E0F90930F0F0C945B2AD6018D916D01B5
:104520000E949F31882309F46DC0133009F063C0E5
:104530000E946C314B015C0120E030E040EA51E424
:104540000E9467F087FF4EC0A50194016091470E5D
:104550007091480E8091490E90914A0E0E94D2F5BA
:104560002B013C019B01AC016091370E7091380E1C
:104570008091390E90913A0E0E94CDF06093370EE3
:104580007093380E8093390E90933A0EA3019201E6
:1045900060910B0E70910C0E80910D0E90910E0E8D
:1045A0000E94CDF060930B0E70930C0E80930D0E55
:1045B00090930E0E60912E1370912F1380913013F3
:1045C000909131130E946CF0A30192010E94CDF0F2
:1045D0000E944BF660932E1370932F138093301329
:1045E000909331138092470E9092480EA092490EFC
:1045F000B0924A0E07C00E946C31F701608371834C
:10460000828393831F5FF4E0EF0EF11C143009F0F6
:1046100084CF0E9482E24FC70E94386483E50E94E3
:10462000E831882311F40C94AF1A0E9438316230BB
:10463000710511F00C94AF1A0E949AA18BE50E94AB
:10464000CB346091FB0E7091FC0E8091FD0E909129
:10465000FE0E42E00E9445384091FF0E5091000F3F
:104660006091010F7091020F83E793E00E94D3DF06
:104670004091030F5091040F6091050F7091060F48
:1046800080E793E00E94D3DF8DE50E94CB348AE07F
:104690000E94CB3410C784918F010F5F1F4F882376
:1046A00021F00E94CB34F801F6CF60E085E494E07D
:1046B0000E946AA661E08EE394E00E946AA661E02F
:1046C00083E394E00E946AA661E083E294E00E94A2
:1046D0006AA660E08AE194E00E946AA661E080E157
:1046E00094E00E946AA660E086E094E00E946AA6D8
:1046F00060E08EEF93E00E946AA661E080EF93E0B5
:104700000E946AA660E082EE93E00E946AA660E0E2
:1047100083ED93E00E946AA660E085EC93E00E943E
:104720006AA660E08FEA93E00E946AA660E08EE9E4
:1047300093E00E946AA660E089E893E00E946AA67E
:1047400061E086E793E00E946AA6B5C68091641393
:1047500090916513DC012C91211103C00E945851E6
:10476000AAC660E00E945C85A6C600916413109101
:10477000651383E0D12C40E08150E1F0F801908195
:10478000292F2B7F2134C1F721812133A9F79134BF
:1047900021F0953421F441E002C0DD24D394980146
:1047A0002E5F3F4F89012F5F3F4FD8019C91903280
:1047B000C9F3E2CF442369F0EAE2FAE084917F0191
:1047C000BFEFEB1AFB0A882321F00E94CB34F701DC
:1047D000F5CFDD2069F0E8E1F5E084917F012FEF6E
:1047E000E21AF20A882321F00E94CB34F701F5CFB8
:1047F000D8018D918D01882309F40BCB0E94CB3415
:10480000F7CF0E949FDF57C681E0809328068093F0
:10481000270651C610922806109227064CC683E53B
:104820000E94E831882319F00E94383102C060E00C
:1048300070E08B01112702301105D4F0EBEFF9E0A5
:1048400084918F010F5F1F4F811103C0ECE1F5E0F0
:1048500004C00E94CB34F801F3CF84918F010F5F25
:104860001F4F882309F427C60E94CB34F801F5CFE7
:1048700088E40E94E8318823A9F00E9438316A3A1E
:1048800071053CF06530B1E07B072CF064E071E02D
:1048900002C06AEA70E0F801EE0FFF1FEE58F24F17
:1048A0007183608386E40E94E8318823A9F00E9426
:1048B0003831F801EE0FFF1FEA58F24F7183608321
:1048C0006F3F710519F014F06FEF70E077FF02C0D1
:1048D00060E070E07183608382E40E94E8318823A5
:1048E00009F4E9C50E9438316530710534F06F363E
:1048F00071052CF06EE670E002C065E070E0000F1C
:10490000111FF801E259F24F71836083D4C588EC1E
:1049100090E00E94E7378111CEC584E40E949F3168
:10492000882309F441C00E946C316B017C0111E0C5
:1049300020E030E0A9010E9467F0811101C010E081
:104940001093620F20E030E0A901C701B6010E9478
:1049500067F0882349F10E946C31E0915C0E24E0FD
:10496000E29FF0011124E25AF04F60837183828349
:10497000938320E030E0A90160915E0F70915F0F9A
:104980008091600F9091610F0E9467F081110CC0BF
:1049900080E090E0A0EEBFE380935E0F90935F0F06
:1049A000A093600FB093610F0E94305684C57BE5E1
:1049B000E72E71E0F72E0FE01EE0D7018D917D010B
:1049C0000E949F31882349F00E946C310E944BF66F
:1049D000F80160837183828393830C5F1F4FFEE035
:1049E0000F311F0751F70E944DE165C50C5F1F4F46
:1049F000FEE00F301F0709F45EC5D7018D917D01E0
:104A00000E949F31882391F30E946C31F8016083EA
:104A1000718382839383EACF83E50E94E831882300
:104A2000A1F00E946C316093270E7093280E809342
:104A3000290E90932A0E60931F0E7093200E809380
:104A4000210E9093220E10E001C011E080E50E943B
:104A5000E831882359F00E946C316093270E7093DF
:104A6000280E8093290E90932A0E10E082E50E9472
:104A7000E831882359F00E946C316093230E7093C3
:104A8000240E8093250E9093260E10E084E50E945C
:104A9000E831882359F00E946C3160931F0E7093A7
:104AA000200E8093210E9093220E05C5112309F448
:104AB00002C54091270E5091280E6091290E7091E9
:104AC0002A0E84E495E00E94D3DF4091230E50919A
:104AD000240E6091250E7091260E81E495E00E94CF
:104AE000D3DF40911F0E5091200E6091210E7091E6
:104AF000220E8EE395E00E94D3DF8AE00E94CB3441
:104B0000DAC481E50E949F31882351F00E94283148
:104B100060932C0D70932D0D80932E0D90932F0D7F
:104B200083E50E949F31882351F00E946C3160938D
:104B3000FB0D7093FC0D8093FD0D9093FE0D84E5AD
:104B40000E949F31882351F00E946C316093F70DD1
:104B50007093F80D8093F90D9093FA0D88E50E94FB
:104B60009F31882351F00E946C3160932B0E70931B
:104B70002C0E80932D0E90932E0E89E50E949F316E
:104B8000882351F00E946C3160932F0E7093300E89
:104B90008093310E9093320E8AE50E949F318823D4
:104BA000F1F00E946C316093330E7093340E809359
:104BB000350E9093360E2DEC3CEC4CEC5DE30E94F0
:104BC00067F0181664F0E4E5F5E084918F010F5F5B
:104BD0001F4F882321F00E94CB34F801F6CF85E4E3
:104BE0000E949F31882309F466C40E946C3160934F
:104BF000370E7093380E8093390E90933A0E5BC443
:104C00004BE5C42E41E0D42E5AE2E52E56E0F52EB7
:104C100010E0D6018D916D010E949F31882351F0E3
:104C20000E946C31F7016083718382839383812FAB
:104C30000E94682F1F5FF4E0EF0EF11C133049F75C
:104C40000C94AF1A84918F010F5F1F4F882321F0BE
:104C50000E94CB34F801F6CF83E50E949F31882370
:104C600021F00E945C3180932901EEEAF5E0849105
:104C70008F010F5F1F4F882321F00E94CB34F80172
:104C8000F6CF80912901882319F0E6EAF5E002C009
:104C9000EAEAF5E084918F010F5F1F4F811103C095
:104CA000EEE9F5E004C00E94CB34F801F3CF849123
:104CB0008F010F5F1F4F882321F00E94CB34F80132
:104CC000F6CF2091420D3091430D4091440D50910B
:104CD000450D60914E0D70914F0D8091500D90914A
:104CE000510D0E944FF5AB01BC018CE995E00E948B
:104CF000D3DF2091460D3091470D4091480D5091E2
:104D0000490D6091520D7091530D8091540D909109
:104D1000550D0E944FF5AB01BC0189E995E00E9459
:104D2000D3DF20914A0D30914B0D40914C0D5091A5
:104D30004D0D6091560D7091570D8091580D9091C9
:104D4000590D0E944FF5AB01BC0186E995E00E9428
:104D5000D3DFEEE8F5E084918F010F5F1F4F8823CA
:104D600021F00E94CB34F801F6CF2091420D309112
:104D7000430D4091440D5091450D60911D0170917E
:104D80001E0180911F01909120010E944FF5AB01FF
:104D9000BC018CE895E00E94D3DF2091460D309154
:104DA000470D4091480D5091490D6091210170913E
:104DB000220180912301909124010E944FF5AB01C3
:104DC000BC0189E895E00E94D3DF20914A0D309123
:104DD0004B0D40914C0D50914D0D609125017091FE
:104DE000260180912701909128010E944FF5AB0187
:104DF000BC0186E895E00E94D3DF8AE00E94CB34B4
:104E00005AC383E50E94E831882309F454C30E9401
:104E1000383170931A01609319014DC38DED90E004
:104E20000E94E737811147C383E50E94E831811171
:104E300003C0EAE2FAE03AC000915C0E10E00E9482
:104E40003831000F111FF801E95EFE4F7183608356
:104E500080915C0E90E07C01EE0CFF1CEE0CFF1CC0
:104E600087010D5E1E4F880F991FFC01E95EFE4F02
:104E700060817181072E000C880B990B0E946EF0E7
:104E80002AE037ED43E25CE30E94CDF0F701E85DF4
:104E9000F24F20813181428153810E94CDF0D801AF
:104EA0006D937D938D939C93139705C384918F018C
:104EB0000F5F1F4F882321F00E94CB34F801F6CFFB
:104EC00085E40E94CB3480915C0E805D0E94CB34DF
:104ED000E0915C0EF0E0EE0FFF1FE95EFE4F608197
:104EE00071818EEB95E00E94F0DF85E20E94CB3469
:104EF0008AE00E94CB34DFC280E50E949F31882384
:104F000009F4D9C20E9438316B017C0183E50E940B
:104F1000E831882321F00E9438318B0102C00FEF65
:104F20001FEFC8010196039708F0C5C2D7FCC3C2A2
:104F30002C2DE6ECF5E083EF95E03491231709F48E
:104F400079C431968E179F07C1F777C483E50E9415
:104F5000E831882319F00E94383102C064E071E022
:104F600079A368A380E50E94E831882339F00E9484
:104F700038316938B3E17B0730F402C068EE73E082
:104F80007A83698304C088E893E19A838983BE01A8
:104F9000605E7F4FCE0101960E94F13B8CC285E49A
:104FA0000E94E831811110C080E50E949F31882362
:104FB00091F00E946C316093610D7093620D80934B
:104FC000630D9093640D07C00E944831882361F3FC
:104FD000EBEFF9E071C089E40E949F31882381F0F2
:104FE0000E946C312CEA35EC47E25EE30E94CDF082
:104FF0006093690D70936A0D80936B0D90936C0DA7
:1050000084E40E949F31882381F00E946C312CEA55
:1050100035EC47E25EE30E94D2F56093650D709334
:10502000660D8093670D9093680DEAE2FAE0849133
:105030008F010F5F1F4F882321F00E94CB34F801AE
:10504000F6CF4091610D5091620D6091630D7091AA
:10505000640D8BEF95E00E94D3DF2CEA35EC47E23C
:105060005EE36091690D70916A0D80916B0D909176
:105070006C0D0E94D2F5AB01BC0187EF95E00E9458
:10508000D3DF2CEA35EC47E25EE36091650D709169
:10509000660D8091670D9091680D0E94CDF0AB0177
:1050A000BC0183EF95E00E94D3DF8AE00E94CB34FD
:1050B00002C20E94CB34F80184918F010F5F1F4F11
:1050C0008111F7CFEFEFF5E084918F010F5F1F4F54
:1050D000882309F4F0C10E94CB34F801F5CF83E5B1
:1050E0000E949F31182F882371F00E946C310E941A
:1050F00044F670931C0160931B0121E0672B09F0BB
:1051000020E02093300D80E50E949F31882359F0E4
:1051100020911B0130911C01232B11F00E945C3166
:105120008093300DC8C11111C6C1EAE2FAE0849142
:105130008F010F5F1F4F882321F00E94CB34F801AD
:10514000F6CF8091300D882319F061E272E002C041
:1051500064E272E086E296E00E9409E060911B0141
:1051600070911C0185E196E00E94F0DFE1E1F6E03C
:1051700084918F010F5F1F4F882309F49CC10E9407
:10518000CB34F801F5CF0E943CA295C10E94CB34EC
:10519000F80184918F010F5F1F4F8111F7CFE9E371
:1051A000F6E084918F010F5F1F4F882309F483C1BC
:1051B0000E94CB34F801F5CF0E9438647CC188E5A9
:1051C0000E949F31D82E89E40E949F31C82E8823E7
:1051D00019F00E9438311DC0DD20C1F00E946C31F1
:1051E00020E030E040EA51E40E944EF520E030E05B
:1051F0004AE252E40E944FF521EC30EC40E45CE3DB
:105200000E94CDF00E9444F6633018F0AA24AA94BC
:1052100001C0A62E89E50E949F31F82E8AE40E94E3
:105220009F31182F882319F00E9438311DC0FF20AC
:10523000C1F00E946C3120E030E040EA51E40E946D
:105240004EF520E030E040E252E40E944FF52DECB4
:105250003CEC4CE45CE30E94CDF00E9444F66330E9
:1052600018F0BB24BA9401C0B62E8AE50E949F3183
:10527000E82E811105C081E50E949F31082F01C0F1
:1052800000E0C11001C010E0212F30E0D11002C0B9
:1052900080E001C08F2D280F311D2130310521F410
:1052A000E1101CC001111AC0EBEFF9E084918F01ED
:1052B0000F5F1F4F811103C0E7E6F6E004C00E94B4
:1052C000CB34F801F3CF84918F010F5F1F4F8823F8
:1052D00009F4F1C00E94CB34F801F5CFA7FC02C05D
:1052E000B7FE1AC0EBEFF9E084918F010F5F1F4FFB
:1052F000811103C0E8E4F6E004C00E94CB34F80159
:10530000F3CF84918F010F5F1F4F882309F4D3C01F
:105310000E94CB34F801F5CF0E946C31EA2CAA0C24
:10532000FF08AB2DBB0CBB0B002391F0F701EE0F78
:10533000FF1FEE0DFF1DEA0FFB1FEE0FFF1FEE0F0D
:10534000FF1FE750FD4E208131814281538103C010
:1053500020E030E0A9018701000F111F0E0D1F1D75
:105360000A0F1B1F000F111F000F111F07501D4EAA
:105370000E944FF5F80160837183828393839BC001
:105380000E9473B298C00E9478D295C083E50E94B3
:105390009F31882319F00E945C3181270E940ECD35
:1053A0008AC081E08093EC120E94D9AC1092EC127A
:1053B000882309F480C0EAE2FAE084918F010F5F4C
:1053C0001F4F811103C0E7E8F6E004C00E94CB3410
:1053D000F801F3CF84918F010F5F1F4F882309F4E9
:1053E0006AC00E94CB34F801F5CF81E080931201AE
:1053F0001092DA1183E50E94E831882339F00E9487
:105400005C31811158C00E94D3A155C083E50E9430
:105410009F31F7CF0E94E5C24EC0F09066130E9404
:1054200038641091410D80E00E94372DFF2029F152
:10543000EAE2FAE084918F010F5F1F4F882321F089
:105440000E94CB34F801F6CF84E50E94CB346F2D57
:1054500070E080E090E04AE00E947A3780E20E94AB
:10546000CB34E4EAF6E084918F010F5F1F4F88236D
:1054700011F10E94CB34F801F6CF1092CA0D812FA2
:105480000E94372DEAE2FAE084918F010F5F1F4FEF
:10549000882321F00E94CB34F801F6CF6091CA0D29
:1054A00070E082E996E00E94F0DF8AE00E94CB344F
:1054B00002C00E94E5C21092070F0E94B6A1FAC175
:1054C00011110C94031E0C94FC1D0E94B7990C94AE
:1054D000251E0E943831AB01BC0140930406509355
:1054E0000506609306067093070683E595E00E9423
:1054F00084C5E1CF0E946C310E9444F66D3771057E
:105500000CF070C17093770F6093760F0E94B19684
:105510000E946C3120E030E040EA50E40E94D2F674
:10552000181614F40E9424E06091760F7091770FA2
:10553000072E000C880B990B0E946EF020918A0DAB
:1055400030918B0D40918C0D50918D0D0E94D2F6B3
:1055500018161CF484E593E002C085E493E060E053
:105560000E94208581E0809308018091CA0D80937C
:105570005C0E18A619A61AA61BA61FA618AA19AA79
:105580001AAA1FA21BAA4CE34CAB5CE15DAB66E41C
:105590006EABC12CD12C80E8E82E9FEBF92E412C6C
:1055A000512C32016091760F7091770F072E000C0D
:1055B000880B990B0E946EF0162F072F8CA39EA3C9
:1055C0009601A7010E9467F0882319F120918A0DA6
:1055D00030918B0D40918C0D50918D0D7EA5612FDA
:1055E00071110AC0702F8CA19EA10E9467F0881FC4
:1055F0008827881F8FA313C0702F8CA19EA10E94A3
:1056000067F087FF0BC080910801882309F453CF0E
:10561000A5C81C2D0D2DECA2FEA201C01FA20E9448
:105620003C426B017C01DC01CB012FA538A949A9C3
:105630005AA9821B930BA40BB50BB7FD3BC0B70156
:10564000A60148515C4F6F4F7F4F4FA758AB69ABD6
:105650007AAB0E94BA93E1E4F3E084915F015FEFDB
:10566000A51AB50A882321F00E94CB34F501F5CFA5
:105670004114510461047104B9F0D301C201805F87
:10568000984DAF4FBF4FBC01CD016C197D098E09FC
:105690009F0928EE33E040E050E00E94A0F4CA01E8
:1056A000B9010E94293803C08FE30E94CB348AE0FD
:1056B0000E94CB340E94B7990E943C426093080F2D
:1056C0007093090F80930A0F90930B0F20908A0D0F
:1056D00030908B0D60918C0D6CA770918D0D7DA716
:1056E0009101AB01612F702F8CA19EA10E944EF5FC
:1056F0004B015C0120E030E0A9010E94D2F687FF57
:1057000004C0B7FAB094B7F8B094411451046104DE
:10571000710459F420E030E040E85FE3C501B401D2
:105720000E9467F087FF0DC00AC020E030E040E42F
:1057300050E4C501B4010E94D2F6181614F42601F3
:1057400037018FA1882391F128A539A54AA55BA52A
:10575000211531054105510541F0D701C601821BD4
:10576000930BA40BB50BB7FD21C091014CA55DA512
:105770006BA97CA98DA99EA90E944EF520E030E07E
:1057800040EC5FE30E9467F087FD3DCFB701A601C3
:10579000405A55416F4F7F4F48A759A76AA77BA72B
:1057A0002BAA3CAA5CA55DAB6DA56EAB80910801F0
:1057B000882309F428CF411451046104710429F4A9
:1057C000C12ED02EECA0FEA0EDCE70E1C71A77E27C
:1057D000D70AE108F108C418D508E608F708F7FE6B
:1057E00012CFEECF6DE770E08DCE0E94386488E571
:1057F0000E949F31882331F05E9A809129068E7F26
:105800008093290689E50E949F31882331F05E9AB2
:10581000809129068D7F809329068AE50E949F3119
:10582000882309F448CE159A809129068B7F8093AE
:10583000290641CE0E9479E43ECE0E943864BC2CF9
:1058400060E08C2D0E9454410F3FFFEF1F0759F479
:105850008C2D0E9411C531E020E0892B09F030E049
:10586000032F122F05C00130110561F401E010E093
:105870008B2D0E9411C58017910709F41CCE0E9440
:10588000B799F6CF00E010E0F3CF61E0812F0E94DE
:1058900054416E2D812F0E943AC5F12CB701812F02
:1058A0000E949041143009F006CEF0927B0FE092F6
:1058B0007A0F01CEE6960FB6F894DEBF0FBECDBFCD
:1058C000DF91CF911F910F91FF90EF90DF90CF90DC
:1058D000BF90AF909F908F907F906F905F904F9010
:1058E0003F902F90089590913A06E92FF0E0EA5CFE
:1058F000F94F80839F5F943018F490933A0602C06A
:1059000010923A068091BD078F5F8093BD0708957E
:10591000089580E090E008958091F90E9091FA0E3C
:10592000981759F0E92FF0E0E758F14F80819F5F19
:105930009F779093FA0E90E008958FEF9FEF089570
:10594000CF93FC0120812B33A9F02091BD07243097
:1059500088F4C62FBC0180913A06F0E68F9FC00103
:105960001124845C994F0E94B8F78C2F0E94732CED
:1059700081E001C080E0CF9108950F931F93CF93F2
:10598000DF93EC010E943C420E811F8128853985FE
:10599000011511052105310559F52C852223A9F1A1
:1059A0003A8521502C8721E0230F2A874D85241327
:1059B00001C01A86FE0124E0329FE00DF11D112482
:1059C00006851785208931890A831B832C833D83B3
:1059D000DC01CB01800F911FA11DB11D8E839F8320
:1059E000A887B9878C819D81892B79F0149A0DC085
:1059F000DC01CB01801B910BA20BB30BB7FD05C0E3
:105A000014981E821F8218861986DF91CF911F91EC
:105A10000F910895EF92FF921F93CF93DF9389EF39
:105A2000E82E82E1F82E13E0C0E0D0E020E030E084
:105A3000A901F701EC0FFD1F6081718182819381C3
:105A40000E9467F081110CC02496CC30D10571F70B
:105A500011508CE0E80EF11C1111E6CF80E001C07E
:105A600081E0DF91CF911F91FF90EF900895CF9348
:105A70009091410D9817D1F0C82F0E943864C11140
:105A800012C043EE51E16FED71E18BED91E10E94A7
:105A9000B36480E08093410D882341F08BED91E168
:105AA000CF910C94EDE00E940A2DF4CFCF91089590
:105AB000CF92DF92EF92FF920F931F93CF93DF93DA
:105AC000CDB7DEB72C970FB6F894DEBF0FBECDBFB3
:105AD0007B018C01D42E9B01AC016091820D7091F1
